{
  "transactions": [
    {
      "hash": "0xafc8c7a6974cb4efb653b0a7b8176af8ade3a9b344787137f1737e42a1ab89b2",
      "transactionType": "CREATE",
      "contractName": "BoxV2",
      "contractAddress": "0x1338e325ce5653afb75d074e5ee35ebf93a02ee1",
      "function": null,
      "arguments": null,
      "transaction": {
        "from": "0x4195ab1c8cc78983c8152a9bb22b2334661dd513",
        "gas": "0x4446d4",
        "value": "0x0",
        "input": "0x608060405234801561001057600080fd5b5061001961001e565b6100d0565b7ff0c57e16840df040f15088dc2f81fe391c3923bec73e23a9662efc9c229c6a00805468010000000000000000900460ff161561006e5760405163f92ee8a960e01b815260040160405180910390fd5b80546001600160401b03908116146100cd5780546001600160401b0319166001600160401b0390811782556040519081527fc7f505b2f371ae2175ee4913f4499e1f2633a7b5936321eed1cdaeb6115181d29060200160405180910390a15b50565b61029b806100df6000396000f3fe608060405234801561001057600080fd5b506004361061004c5760003560e01c80632e64cec1146100515780636057361d14610066578063d09de08a1461007b578063fe4b84df14610083575b600080fd5b60005460405190815260200160405180910390f35b610079610074366004610225565b610096565b005b6100796100d1565b610079610091366004610225565b610119565b60008190556040518181527f93fe6d397c74fdf1402a8b72e47b68512f0510d7b98a4bc4cbdf6ac7108b3c599060200160405180910390a150565b6000546100df90600161023e565b60008190556040519081527f93fe6d397c74fdf1402a8b72e47b68512f0510d7b98a4bc4cbdf6ac7108b3c599060200160405180910390a1565b7ff0c57e16840df040f15088dc2f81fe391c3923bec73e23a9662efc9c229c6a008054600160401b810460ff16159067ffffffffffffffff1660008115801561015f5750825b905060008267ffffffffffffffff16600114801561017c5750303b155b90508115801561018a575080155b156101a85760405163f92ee8a960e01b815260040160405180910390fd5b845467ffffffffffffffff1916600117855583156101d257845460ff60401b1916600160401b1785555b6000869055831561021d57845460ff60401b19168555604051600181527fc7f505b2f371ae2175ee4913f4499e1f2633a7b5936321eed1cdaeb6115181d29060200160405180910390a15b505050505050565b60006020828403121561023757600080fd5b5035919050565b8082018082111561025f57634e487b7160e01b600052601160045260246000fd5b9291505056fea264697066735822122079605e7a70bd193d5f68def92631fb5a72861b0fe97f2da00b7d13565ed5859064736f6c63430008180033",
        "nonce": "0x1d",
        "chainId": "0x14a34"
      },
      "additionalContracts": [],
      "isFixedGasLimit": false
    },
    {
      "hash": "0x26fd56301e18a6edf0e742e8d9286a6660f77486f927a30c997ef2a81989bd6f",
      "transactionType": "CALL",
      "contractName": null,
      "contractAddress": "0xd42f52906f9bfc56f5496a9e1e4d84c42527fb71",
      "function": "upgradeAndCall(address,address,bytes)",
      "arguments": [
        "0xf6c531c99a53B83954906281963e2fBc7b2C2285",
        "0x1338e325Ce5653AfB75D074e5eE35EBf93a02eE1",
        "0x"
      ],
      "transaction": {
        "from": "0x4195ab1c8cc78983c8152a9bb22b2334661dd513",
        "to": "0xd42f52906f9bfc56f5496a9e1e4d84c42527fb71",
        "gas": "0xc46e4",
        "value": "0x0",
        "input": "0x9623609d000000000000000000000000f6c531c99a53b83954906281963e2fbc7b2c22850000000000000000000000001338e325ce5653afb75d074e5ee35ebf93a02ee100000000000000000000000000000000000000000000000000000000000000600000000000000000000000000000000000000000000000000000000000000000",
        "nonce": "0x1e",
        "chainId": "0x14a34"
      },
      "additionalContracts": [],
      "isFixedGasLimit": false
    },
    {
      "hash": "0x44397ef868b1b075eaf594bcb1c8b9c918d42f46d2bdcf52c7c4a9a80862f364",
      "transactionType": "CALL",
      "contractName": null,
      "contractAddress": "0xf6c531c99a53b83954906281963e2fbc7b2c2285",
      "function": "increment()",
      "arguments": [],
      "transaction": {
        "from": "0x4195ab1c8cc78983c8152a9bb22b2334661dd513",
        "to": "0xf6c531c99a53b83954906281963e2fbc7b2c2285",
        "gas": "0xa7a6c",
        "value": "0x0",
        "input": "0xd09de08a",
        "nonce": "0x1f",
        "chainId": "0x14a34"
      },
      "additionalContracts": [],
      "isFixedGasLimit": false
    }
  ],
  "receipts": [
    {
      "status": "0x1",
      "cumulativeGasUsed": "0xe2ee3",
      "logs": [
        {
          "address": "0x1338e325ce5653afb75d074e5ee35ebf93a02ee1",
          "topics": [
            "0xc7f505b2f371ae2175ee4913f4499e1f2633a7b5936321eed1cdaeb6115181d2"
          ],
          "data": "0x000000000000000000000000000000000000000000000000ffffffffffffffff",
          "blockHash": "0x3cedf7fcec57ae5c72e6f6aea69509dce1fb2a06c6c4757393b58fbb585e6ed6",
          "blockNumber": "0x107593c",
          "transactionHash": "0xafc8c7a6974cb4efb653b0a7b8176af8ade3a9b344787137f1737e42a1ab89b2",
          "transactionIndex": "0x9",
          "logIndex": "0x9",
          "removed": false
        }
      ],
      "logsBloom": "0x00000000000000000000000000000000000000000000000000000000000000000000000000000000000000000000000000000000000000000000000000000100000000000000000000000000000000000000000000000000002000000000000000000000000000000000000000000000000000000000000000000000000000000000000200000000000800000000000000000000000080000000000000000000000000000000000000000000000000000000000000000000000000000000000000000000000000000000000000000000000000000004000000000000000000000000000000000000000000000000000000000000000000000000000000000000",
      "type": "0x2",
      "transactionHash": "0xafc8c7a6974cb4efb653b0a7b8176af8ade3a9b344787137f1737e42a1ab89b2",
      "transactionIndex": "0x9",
      "blockHash": "0x3cedf7fcec57ae5c72e6f6aea69509dce1fb2a06c6c4757393b58fbb585e6ed6",
      "blockNumber": "0x107593c",
      "gasUsed": "0x36a29",
      "effectiveGasPrice": "0xf4430",
      "from": "0x4195ab1c8cc78983c8152a9bb22b2334661dd513",
      "to": null,
      "contractAddress": "0x1338e325ce5653afb75d074e5ee35ebf93a02ee1",
      "l1BaseFeeScalar": "0x44d",
      "l1BlobBaseFee": "0x1",
      "l1BlobBaseFeeScalar": "0xa118b",
      "l1Fee": "0x5af4e71e8",
      "l1GasPrice": "0x9027f7ca",
      "l1GasUsed": "0x23d1"
    },
    {
      "status": "0x1",
      "cumulativeGasUsed": "0xec2ca",
      "logs": [
        {
          "address": "0xf6c531c99a53b83954906281963e2fbc7b2c2285",
          "topics": [
            "0xbc7cd75a20ee27fd9adebab32041f755214dbc6bffa90cc0225b39da2e5c2d3b",
            "0x0000000000000000000000001338e325ce5653afb75d074e5ee35ebf93a02ee1"
          ],
          "data": "0x",
          "blockHash": "0x3cedf7fcec57ae5c72e6f6aea69509dce1fb2a06c6c4757393b58fbb585e6ed6",
          "blockNumber": "0x107593c",
          "transactionHash": "0x26fd56301e18a6edf0e742e8d9286a6660f77486f927a30c997ef2a81989bd6f",
          "transactionIndex": "0xa",
          "logIndex": "0xa",
          "removed": false
        }
      ],
      "logsBloom": "0x00000000000000000000000000000000400000000000000000000000000000000000000000000000000000000000000000000000000000000000000000000000000000400000000000000000000002000000000000000000008000000000000000000000000000000000000000000000000000000000000000000000000000000000000000008000000000000000000000000000000008000000000000000000000000000000000000000000000000800000000000000000000000000000000000000020000000000000000000000000000000000000000000000000000000000000000000000000000000000000008000000000000000000000000000000000",
      "type": "0x2",
      "transactionHash": "0x26fd56301e18a6edf0e742e8d9286a6660f77486f927a30c997ef2a81989bd6f",
      "transactionIndex": "0xa",
      "blockHash": "0x3cedf7fcec57ae5c72e6f6aea69509dce1fb2a06c6c4757393b58fbb585e6ed6",
      "blockNumber": "0x107593c",
      "gasUsed": "0x93e7",
      "effectiveGasPrice": "0xf4430",
      "from": "0x4195ab1c8cc78983c8152a9bb22b2334661dd513",
      "to": "0xd42f52906f9bfc56f5496a9e1e4d84c42527fb71",
      "contractAddress": null,
      "l1BaseFeeScalar": "0x44d",
      "l1BlobBaseFee": "0x1",
      "l1BlobBaseFeeScalar": "0xa118b",
      "l1Fee": "0x118981e58",
      "l1GasPrice": "0x9027f7ca",
      "l1GasUsed": "0x6e7"
    },
    {
      "status": "0x1",
      "cumulativeGasUsed": "0xf4106",
      "logs": [
        {
          "address": "0xf6c531c99a53b83954906281963e2fbc7b2c2285",
          "topics": [
            "0x93fe6d397c74fdf1402a8b72e47b68512f0510d7b98a4bc4cbdf6ac7108b3c59"
          ],
          "data": "0x000000000000000000000000000000000000000000000000000000000000002b",
          "blockHash": "0x3cedf7fcec57ae5c72e6f6aea69509dce1fb2a06c6c4757393b58fbb585e6ed6",
          "blockNumber": "0x107593c",
          "transactionHash": "0x44397ef868b1b075eaf594bcb1c8b9c918d42f46d2bdcf52c7c4a9a80862f364",
          "transactionIndex": "0xb",
          "logIndex": "0xb",
          "removed": false
        }
      ],
      "logsBloom": "0x40000000000000000000000000000000000000000000000000000000000000000000000000000000000000000000000000000000000000000000000000000000000000000000000000000000000000000000000000000000000000000000000000000000000000000000000000000000000000000000000000000000000000000000000000008000000000000000000000000000000000000000000000000000000000000000000000000000000000800000020000000000000000000000000000000000000000000000000000000000000000000000000000000000000000000000000000000000000000000000008000400000000000000000000000000000",
      "type": "0x2",
      "transactionHash": "0x44397ef868b1b075eaf594bcb1c8b9c918d42f46d2bdcf52c7c4a9a80862f364",
      "transactionIndex": "0xb",
      "blockHash": "0x3cedf7fcec57ae5c72e6f6aea69509dce1fb2a06c6c4757393b58fbb585e6ed6",
      "blockNumber": "0x107593c",
      "gasUsed": "0x7e3c",
      "effectiveGasPrice": "0xf4430",
      "from": "0x4195ab1c8cc78983c8152a9bb22b2334661dd513",
      "to": "0xf6c531c99a53b83954906281963e2fbc7b2c2285",
      "contractAddress": null,
      "l1BaseFeeScalar": "0x44d",
      "l1BlobBaseFee": "0x1",
      "l1BlobBaseFeeScalar": "0xa118b",
      "l1Fee": "0xfdf207e9",
      "l1GasPrice": "0x9027f7ca",
      "l1GasUsed": "0x640"
    }
  ],
  "libraries": [],
  "pending": [],
  "returns": {},
  "timestamp": 1730285918,
  "chain": 84532,
  "commit": "64693d1"
}