{
  "transactions": [
    {
      "hash": "0x0f735be069f0f579d12b8292dcb4c2309ecbc74709d7f3f63b1dde1178499c7a",
      "transactionType": "CREATE",
      "contractName": "BoxV2",
      "contractAddress": "0xa194948ad34b871dde1ba8b931229c22d98f29dd",
      "function": null,
      "arguments": null,
      "transaction": {
        "from": "0x4195ab1c8cc78983c8152a9bb22b2334661dd513",
        "gas": "0x4446d4",
        "value": "0x0",
        "input": "0x608060405234801561001057600080fd5b5061001961001e565b6100d0565b7ff0c57e16840df040f15088dc2f81fe391c3923bec73e23a9662efc9c229c6a00805468010000000000000000900460ff161561006e5760405163f92ee8a960e01b815260040160405180910390fd5b80546001600160401b03908116146100cd5780546001600160401b0319166001600160401b0390811782556040519081527fc7f505b2f371ae2175ee4913f4499e1f2633a7b5936321eed1cdaeb6115181d29060200160405180910390a15b50565b61029b806100df6000396000f3fe608060405234801561001057600080fd5b506004361061004c5760003560e01c80632e64cec1146100515780636057361d14610066578063d09de08a1461007b578063fe4b84df14610083575b600080fd5b60005460405190815260200160405180910390f35b610079610074366004610225565b610096565b005b6100796100d1565b610079610091366004610225565b610119565b60008190556040518181527f93fe6d397c74fdf1402a8b72e47b68512f0510d7b98a4bc4cbdf6ac7108b3c599060200160405180910390a150565b6000546100df90600161023e565b60008190556040519081527f93fe6d397c74fdf1402a8b72e47b68512f0510d7b98a4bc4cbdf6ac7108b3c599060200160405180910390a1565b7ff0c57e16840df040f15088dc2f81fe391c3923bec73e23a9662efc9c229c6a008054600160401b810460ff16159067ffffffffffffffff1660008115801561015f5750825b905060008267ffffffffffffffff16600114801561017c5750303b155b90508115801561018a575080155b156101a85760405163f92ee8a960e01b815260040160405180910390fd5b845467ffffffffffffffff1916600117855583156101d257845460ff60401b1916600160401b1785555b6000869055831561021d57845460ff60401b19168555604051600181527fc7f505b2f371ae2175ee4913f4499e1f2633a7b5936321eed1cdaeb6115181d29060200160405180910390a15b505050505050565b60006020828403121561023757600080fd5b5035919050565b8082018082111561025f57634e487b7160e01b600052601160045260246000fd5b9291505056fea264697066735822122079605e7a70bd193d5f68def92631fb5a72861b0fe97f2da00b7d13565ed5859064736f6c63430008180033",
        "nonce": "0x1b",
        "chainId": "0x14a34"
      },
      "additionalContracts": [],
      "isFixedGasLimit": false
    },
    {
      "hash": "0x16734850a26b44c687e503255cb62a5707f89c8694bd473c84c24b22418109fd",
      "transactionType": "CALL",
      "contractName": null,
      "contractAddress": "0xd42f52906f9bfc56f5496a9e1e4d84c42527fb71",
      "function": "upgradeAndCall(address,address,bytes)",
      "arguments": [
        "0xf6c531c99a53B83954906281963e2fBc7b2C2285",
        "0xA194948Ad34b871DdE1bA8B931229C22D98F29Dd",
        "0x"
      ],
      "transaction": {
        "from": "0x4195ab1c8cc78983c8152a9bb22b2334661dd513",
        "to": "0xd42f52906f9bfc56f5496a9e1e4d84c42527fb71",
        "gas": "0xc46e4",
        "value": "0x0",
        "input": "0x9623609d000000000000000000000000f6c531c99a53b83954906281963e2fbc7b2c2285000000000000000000000000a194948ad34b871dde1ba8b931229c22d98f29dd00000000000000000000000000000000000000000000000000000000000000600000000000000000000000000000000000000000000000000000000000000000",
        "nonce": "0x1c",
        "chainId": "0x14a34"
      },
      "additionalContracts": [],
      "isFixedGasLimit": false
    }
  ],
  "receipts": [
    {
      "status": "0x1",
      "cumulativeGasUsed": "0x812caf",
      "logs": [
        {
          "address": "0xa194948ad34b871dde1ba8b931229c22d98f29dd",
          "topics": [
            "0xc7f505b2f371ae2175ee4913f4499e1f2633a7b5936321eed1cdaeb6115181d2"
          ],
          "data": "0x000000000000000000000000000000000000000000000000ffffffffffffffff",
          "blockHash": "0x9ea5e8b800e3aa6c42d81b8d41f0d5742896e3d93a86b5ffe73d2b9715be7308",
          "blockNumber": "0x107562e",
          "transactionHash": "0x0f735be069f0f579d12b8292dcb4c2309ecbc74709d7f3f63b1dde1178499c7a",
          "transactionIndex": "0x1a",
          "logIndex": "0x54",
          "removed": false
        }
      ],
      "logsBloom": "0x00000000000000000000000000000000000000000000000000000000000000000000000000000000000000000000000000000000000000000000000000000000000000000000000000000000000000000000000000000000000000000000000000000000000000000000000000000000000000000000000000000000000000000000000100000000000800000000000000000000000080000000000000000000000000000000000000000000000000000000000000000000000000000000000000000000000000000000000000000000000000000004000000000000000002000000000000000000000000000800000000000000000000000000000000000000",
      "type": "0x2",
      "transactionHash": "0x0f735be069f0f579d12b8292dcb4c2309ecbc74709d7f3f63b1dde1178499c7a",
      "transactionIndex": "0x1a",
      "blockHash": "0x9ea5e8b800e3aa6c42d81b8d41f0d5742896e3d93a86b5ffe73d2b9715be7308",
      "blockNumber": "0x107562e",
      "gasUsed": "0x36a29",
      "effectiveGasPrice": "0xf442b",
      "from": "0x4195ab1c8cc78983c8152a9bb22b2334661dd513",
      "to": null,
      "contractAddress": "0xa194948ad34b871dde1ba8b931229c22d98f29dd",
      "l1BaseFeeScalar": "0x44d",
      "l1BlobBaseFee": "0x3",
      "l1BlobBaseFeeScalar": "0xa118b",
      "l1Fee": "0x52e760a18",
      "l1GasPrice": "0x8364adf5",
      "l1GasUsed": "0x23d1"
    },
    {
      "status": "0x1",
      "cumulativeGasUsed": "0x6e878",
      "logs": [
        {
          "address": "0xf6c531c99a53b83954906281963e2fbc7b2c2285",
          "topics": [
            "0xbc7cd75a20ee27fd9adebab32041f755214dbc6bffa90cc0225b39da2e5c2d3b",
            "0x000000000000000000000000a194948ad34b871dde1ba8b931229c22d98f29dd"
          ],
          "data": "0x",
          "blockHash": "0x3faf5887711b5efd365074341df7ee9b2973a6f92b86cddafbb08f2f67452ba7",
          "blockNumber": "0x107562f",
          "transactionHash": "0x16734850a26b44c687e503255cb62a5707f89c8694bd473c84c24b22418109fd",
          "transactionIndex": "0x6",
          "logIndex": "0x6",
          "removed": false
        }
      ],
      "logsBloom": "0x00000000000000000000000000000000400000000000000000000000000000000000000000000000000000000008000000000000000000000000000000000000000000000000000000000000000002000000000000000008000000000000000000000000000000000000000000000000000000000000000000000000000000000000000000008000000000000000000000000000000000000000000000000000080000000000000000000000000000800000000000000000000000000000000000000020000000000000000000000000000000000000000000000000000000000000000000000000000000000000008000000000000000000000000000000000",
      "type": "0x2",
      "transactionHash": "0x16734850a26b44c687e503255cb62a5707f89c8694bd473c84c24b22418109fd",
      "transactionIndex": "0x6",
      "blockHash": "0x3faf5887711b5efd365074341df7ee9b2973a6f92b86cddafbb08f2f67452ba7",
      "blockNumber": "0x107562f",
      "gasUsed": "0x93e7",
      "effectiveGasPrice": "0xf442c",
      "from": "0x4195ab1c8cc78983c8152a9bb22b2334661dd513",
      "to": "0xd42f52906f9bfc56f5496a9e1e4d84c42527fb71",
      "contractAddress": null,
      "l1BaseFeeScalar": "0x44d",
      "l1BlobBaseFee": "0x3",
      "l1BlobBaseFeeScalar": "0xa118b",
      "l1Fee": "0xffc07909",
      "l1GasPrice": "0x8364adf5",
      "l1GasUsed": "0x6e7"
    }
  ],
  "libraries": [],
  "pending": [],
  "returns": {},
  "timestamp": 1730284355,
  "chain": 84532,
  "commit": "10f776a"
}